:020000040000FA
:0400000095EFFFF089
:020000040001F9
:10FF2A000001ABEFFFF0949C948E0C0EB06EAC8E79
:10FF3A00AC88AD8A1200016E9EA8A6EFFFF0A8EF6A
:10FF4A00FFF0A1EFFFF001C0AEFF120098ECFFF046
:10FF5A00000E0001C56F000EC46F9EAAB7EFFFF036
:10FF6A00B9EFFFF0B2EFFFF0600E0001C425D96EC1
:10FF7A00000EC521DA6EAFCFDFFF600EC425D96E41
:10FF8A00000EC521DA6E0D0EDE18D8A4CFEFFFF0F1
:10FF9A00D1EFFFF0DBEFFFF0600EC425D96E000E43
:10FFAA00C521DA6E000EDF6EDFEFFFF0C44BC52B02
:10FFBA00B2EFFFF0000EC56F000EC46F600EC425CD
:10FFCA00D96E000EC521DA6EDF50A0ECFFF00001F9
:10FFDA00C44BC52BC55109E1640EC45DD8A0F8EF26
:0EFFEA00FFF0FAEFFFF0E3EFFFF000EF00F0A2
:08FFF800BFF7FFFFFFFBFFFB59
:00000001FF
