:020000040000FA
:040000006BEF00F0B2
:100008000882D9CF03F0DACF04F0000E066E000E96
:10001800056E9EAA12EF00F014EF00F00DEF00F04D
:10002800ACA219EF00F01BEF00F01EEF00F0AC9847
:1000380000F0AC88600E0524D96E000E0620DA6E3A
:10004800AFCFDFFF600E0524D96E000E0620DA6EF2
:100058000D0EDE18D8A433EF00F035EF00F05DEF99
:1000680000F0000E066E000E056E065009E1640EE3
:10007800055CD8A042EF00F044EF00F046EF00F036
:1000880053EF00F0600E0524D96E000E0620DA6EDC
:10009800DF5087EC00F0054A062A39EF00F0600EC1
:1000A8000524D96E000E0620DA6E000EDF6E65EFAD
:1000B80000F0000EAE6E000EAF6E054A062A0DEF78
:1000C80000F004C0DAFF03C0D9FF089211006DEFF9
:1000D80000F000EE60F0640EEE6AE806FDE1076AE3
:1000E800066A056A0890089200017BEF00F092EC1E
:1000F80000F0F28EF28C9D8A9F8A9D8A9D8883EFFC
:1001080000F06BEF00F0016E9EA88DEF00F08FEF0E
:1001180000F088EF00F001C0AEFF1200949C948EAE
:0C0128000C0EB06EAC8EAC88AD8A1200DC
:020000040001F9
:08FFF800BFF7FFFFFFFBFFFB59
:00000001FF
