:020000040000FA
:04000000A4EFFFF07A
:020000040001F9
:10FF48000001C4EFFFF0026E02C0C9FF9EA6AFEF2A
:10FF5800FFF0B1EFFFF0AAEFFFF09E96C950120034
:10FF6800938A9398929A949E929A808A400EC76E2A
:10FF7800220EC66E9E96000EC26E0F0EC16E120045
:10FF8800B4ECFFF0000E066E000E056E809A610E4E
:10FF9800A7ECFFF00B0E046E260E036E5E0EE82E25
:10FFA800FED7032EFCD7042EFAD7620EA7ECFFF07B
:10FFB8000B0E046E260E036E5E0EE82EFED7032E81
:10FFC800FCD7042EFAD7808A054A062A06BEF6EF21
:10FFD800FFF0065009E1020E055CD8A0F6EFFFF02D
:10FFE800F8EFFFF0CAEFFFF0C6EFFFF000EF00F008
:08FFF800BFF7FFFFFFFBFFFB59
:00000001FF
