:020000040000FA
:0400000094EFFFF08A
:020000040001F9
:10FF28000001B1EFFFF0C9689EA69DEFFFF09FEFBB
:10FF3800FFF098EFFFF09E96C9501200938A9388BD
:10FF4800928A949E9390400EC76E340EC66E9E960B
:10FF5800000EC26E0F0EC16E1200A2ECFFF0000E72
:10FF6800046E000E036E81800B0E026E260E016E6B
:10FF78005E0EE82EFED7012EFCD7022EFAD781900E
:10FF88000B0E026E260E016E5E0EE82EFED7012EB7
:10FF9800FCD7022EFAD7034A042A04BEDDEFFFF08D
:10FFA800045009E1020E035CD8A0DDEFFFF0DFEF9B
:10FFB800FFF0B7EFFFF097ECFFF0056E610E051844
:10FFC800D8A4E9EFFFF0EBEFFFF0EEEFFFF0818050
:10FFD800DFEFFFF0620E0518D8A4F5EFFFF0F7EF9A
:10FFE800FFF0DFEFFFF08190DFEFFFF000EF00F0B0
:08FFF800BFF7FFFFFFFBFFFB59
:00000001FF
